{
  "_format": "hh-sol-artifact-1",
  "contractName": "RandomIpfsNft",
  "sourceName": "contracts/RandomIpfsNft.sol",
  "abi": [
    {
      "inputs": [
        {
          "internalType": "address",
          "name": "vrfCoordinatorV2",
          "type": "address"
        },
        {
          "internalType": "uint64",
          "name": "subscriptionId",
          "type": "uint64"
        },
        {
          "internalType": "bytes32",
          "name": "gasLane",
          "type": "bytes32"
        },
        {
          "internalType": "uint32",
          "name": "callbackGasLimit",
          "type": "uint32"
        },
        {
          "internalType": "string[3]",
          "name": "dogTokenUris",
          "type": "string[3]"
        },
        {
          "internalType": "uint256",
          "name": "mintFee",
          "type": "uint256"
        }
      ],
      "stateMutability": "nonpayable",
      "type": "constructor"
    },
    {
      "inputs": [
        {
          "internalType": "address",
          "name": "have",
          "type": "address"
        },
        {
          "internalType": "address",
          "name": "want",
          "type": "address"
        }
      ],
      "name": "OnlyCoordinatorCanFulfill",
      "type": "error"
    },
    {
      "inputs": [],
      "name": "RandomIpfsNft__NeedMoreEthSent",
      "type": "error"
    },
    {
      "inputs": [],
      "name": "RandomIpfsNft__RangeOutOfBounds",
      "type": "error"
    },
    {
      "inputs": [],
      "name": "RandomIpfsNft__TransferFailed",
      "type": "error"
    },
    {
      "anonymous": false,
      "inputs": [
        {
          "indexed": true,
          "internalType": "address",
          "name": "owner",
          "type": "address"
        },
        {
          "indexed": true,
          "internalType": "address",
          "name": "approved",
          "type": "address"
        },
        {
          "indexed": true,
          "internalType": "uint256",
          "name": "tokenId",
          "type": "uint256"
        }
      ],
      "name": "Approval",
      "type": "event"
    },
    {
      "anonymous": false,
      "inputs": [
        {
          "indexed": true,
          "internalType": "address",
          "name": "owner",
          "type": "address"
        },
        {
          "indexed": true,
          "internalType": "address",
          "name": "operator",
          "type": "address"
        },
        {
          "indexed": false,
          "internalType": "bool",
          "name": "approved",
          "type": "bool"
        }
      ],
      "name": "ApprovalForAll",
      "type": "event"
    },
    {
      "anonymous": false,
      "inputs": [
        {
          "indexed": false,
          "internalType": "enum RandomIpfsNft.Breed",
          "name": "dogBreed",
          "type": "uint8"
        },
        {
          "indexed": false,
          "internalType": "address",
          "name": "minter",
          "type": "address"
        }
      ],
      "name": "NftMinted",
      "type": "event"
    },
    {
      "anonymous": false,
      "inputs": [
        {
          "indexed": true,
          "internalType": "uint256",
          "name": "requestId",
          "type": "uint256"
        },
        {
          "indexed": false,
          "internalType": "address",
          "name": "requester",
          "type": "address"
        }
      ],
      "name": "NftRequested",
      "type": "event"
    },
    {
      "anonymous": false,
      "inputs": [
        {
          "indexed": true,
          "internalType": "address",
          "name": "previousOwner",
          "type": "address"
        },
        {
          "indexed": true,
          "internalType": "address",
          "name": "newOwner",
          "type": "address"
        }
      ],
      "name": "OwnershipTransferred",
      "type": "event"
    },
    {
      "anonymous": false,
      "inputs": [
        {
          "indexed": true,
          "internalType": "address",
          "name": "from",
          "type": "address"
        },
        {
          "indexed": true,
          "internalType": "address",
          "name": "to",
          "type": "address"
        },
        {
          "indexed": true,
          "internalType": "uint256",
          "name": "tokenId",
          "type": "uint256"
        }
      ],
      "name": "Transfer",
      "type": "event"
    },
    {
      "inputs": [
        {
          "internalType": "address",
          "name": "to",
          "type": "address"
        },
        {
          "internalType": "uint256",
          "name": "tokenId",
          "type": "uint256"
        }
      ],
      "name": "approve",
      "outputs": [],
      "stateMutability": "nonpayable",
      "type": "function"
    },
    {
      "inputs": [
        {
          "internalType": "address",
          "name": "owner",
          "type": "address"
        }
      ],
      "name": "balanceOf",
      "outputs": [
        {
          "internalType": "uint256",
          "name": "",
          "type": "uint256"
        }
      ],
      "stateMutability": "view",
      "type": "function"
    },
    {
      "inputs": [
        {
          "internalType": "uint256",
          "name": "tokenId",
          "type": "uint256"
        }
      ],
      "name": "getApproved",
      "outputs": [
        {
          "internalType": "address",
          "name": "",
          "type": "address"
        }
      ],
      "stateMutability": "view",
      "type": "function"
    },
    {
      "inputs": [
        {
          "internalType": "uint256",
          "name": "moddedRng",
          "type": "uint256"
        }
      ],
      "name": "getBreedFromModdedRng",
      "outputs": [
        {
          "internalType": "enum RandomIpfsNft.Breed",
          "name": "",
          "type": "uint8"
        }
      ],
      "stateMutability": "pure",
      "type": "function"
    },
    {
      "inputs": [],
      "name": "getChanceArray",
      "outputs": [
        {
          "internalType": "uint256[3]",
          "name": "",
          "type": "uint256[3]"
        }
      ],
      "stateMutability": "pure",
      "type": "function"
    },
    {
      "inputs": [
        {
          "internalType": "uint256",
          "name": "index",
          "type": "uint256"
        }
      ],
      "name": "getDogTokenUris",
      "outputs": [
        {
          "internalType": "string",
          "name": "",
          "type": "string"
        }
      ],
      "stateMutability": "view",
      "type": "function"
    },
    {
      "inputs": [],
      "name": "getMintFee",
      "outputs": [
        {
          "internalType": "uint256",
          "name": "",
          "type": "uint256"
        }
      ],
      "stateMutability": "view",
      "type": "function"
    },
    {
      "inputs": [],
      "name": "getTokenCounter",
      "outputs": [
        {
          "internalType": "uint256",
          "name": "",
          "type": "uint256"
        }
      ],
      "stateMutability": "view",
      "type": "function"
    },
    {
      "inputs": [
        {
          "internalType": "address",
          "name": "owner",
          "type": "address"
        },
        {
          "internalType": "address",
          "name": "operator",
          "type": "address"
        }
      ],
      "name": "isApprovedForAll",
      "outputs": [
        {
          "internalType": "bool",
          "name": "",
          "type": "bool"
        }
      ],
      "stateMutability": "view",
      "type": "function"
    },
    {
      "inputs": [],
      "name": "name",
      "outputs": [
        {
          "internalType": "string",
          "name": "",
          "type": "string"
        }
      ],
      "stateMutability": "view",
      "type": "function"
    },
    {
      "inputs": [],
      "name": "owner",
      "outputs": [
        {
          "internalType": "address",
          "name": "",
          "type": "address"
        }
      ],
      "stateMutability": "view",
      "type": "function"
    },
    {
      "inputs": [
        {
          "internalType": "uint256",
          "name": "tokenId",
          "type": "uint256"
        }
      ],
      "name": "ownerOf",
      "outputs": [
        {
          "internalType": "address",
          "name": "",
          "type": "address"
        }
      ],
      "stateMutability": "view",
      "type": "function"
    },
    {
      "inputs": [
        {
          "internalType": "uint256",
          "name": "requestId",
          "type": "uint256"
        },
        {
          "internalType": "uint256[]",
          "name": "randomWords",
          "type": "uint256[]"
        }
      ],
      "name": "rawFulfillRandomWords",
      "outputs": [],
      "stateMutability": "nonpayable",
      "type": "function"
    },
    {
      "inputs": [],
      "name": "renounceOwnership",
      "outputs": [],
      "stateMutability": "nonpayable",
      "type": "function"
    },
    {
      "inputs": [],
      "name": "requestNft",
      "outputs": [
        {
          "internalType": "uint256",
          "name": "requestId",
          "type": "uint256"
        }
      ],
      "stateMutability": "payable",
      "type": "function"
    },
    {
      "inputs": [
        {
          "internalType": "uint256",
          "name": "",
          "type": "uint256"
        }
      ],
      "name": "s_requestIdToSender",
      "outputs": [
        {
          "internalType": "address",
          "name": "",
          "type": "address"
        }
      ],
      "stateMutability": "view",
      "type": "function"
    },
    {
      "inputs": [],
      "name": "s_tokenCounter",
      "outputs": [
        {
          "internalType": "uint256",
          "name": "",
          "type": "uint256"
        }
      ],
      "stateMutability": "view",
      "type": "function"
    },
    {
      "inputs": [
        {
          "internalType": "address",
          "name": "from",
          "type": "address"
        },
        {
          "internalType": "address",
          "name": "to",
          "type": "address"
        },
        {
          "internalType": "uint256",
          "name": "tokenId",
          "type": "uint256"
        }
      ],
      "name": "safeTransferFrom",
      "outputs": [],
      "stateMutability": "nonpayable",
      "type": "function"
    },
    {
      "inputs": [
        {
          "internalType": "address",
          "name": "from",
          "type": "address"
        },
        {
          "internalType": "address",
          "name": "to",
          "type": "address"
        },
        {
          "internalType": "uint256",
          "name": "tokenId",
          "type": "uint256"
        },
        {
          "internalType": "bytes",
          "name": "data",
          "type": "bytes"
        }
      ],
      "name": "safeTransferFrom",
      "outputs": [],
      "stateMutability": "nonpayable",
      "type": "function"
    },
    {
      "inputs": [
        {
          "internalType": "address",
          "name": "operator",
          "type": "address"
        },
        {
          "internalType": "bool",
          "name": "approved",
          "type": "bool"
        }
      ],
      "name": "setApprovalForAll",
      "outputs": [],
      "stateMutability": "nonpayable",
      "type": "function"
    },
    {
      "inputs": [
        {
          "internalType": "bytes4",
          "name": "interfaceId",
          "type": "bytes4"
        }
      ],
      "name": "supportsInterface",
      "outputs": [
        {
          "internalType": "bool",
          "name": "",
          "type": "bool"
        }
      ],
      "stateMutability": "view",
      "type": "function"
    },
    {
      "inputs": [],
      "name": "symbol",
      "outputs": [
        {
          "internalType": "string",
          "name": "",
          "type": "string"
        }
      ],
      "stateMutability": "view",
      "type": "function"
    },
    {
      "inputs": [
        {
          "internalType": "uint256",
          "name": "tokenId",
          "type": "uint256"
        }
      ],
      "name": "tokenURI",
      "outputs": [
        {
          "internalType": "string",
          "name": "",
          "type": "string"
        }
      ],
      "stateMutability": "view",
      "type": "function"
    },
    {
      "inputs": [
        {
          "internalType": "address",
          "name": "from",
          "type": "address"
        },
        {
          "internalType": "address",
          "name": "to",
          "type": "address"
        },
        {
          "internalType": "uint256",
          "name": "tokenId",
          "type": "uint256"
        }
      ],
      "name": "transferFrom",
      "outputs": [],
      "stateMutability": "nonpayable",
      "type": "function"
    },
    {
      "inputs": [
        {
          "internalType": "address",
          "name": "newOwner",
          "type": "address"
        }
      ],
      "name": "transferOwnership",
      "outputs": [],
      "stateMutability": "nonpayable",
      "type": "function"
    },
    {
      "inputs": [],
      "name": "withdraw",
      "outputs": [],
      "stateMutability": "nonpayable",
      "type": "function"
    }
  ],
  "bytecode": "0x6101406040523480156200001257600080fd5b506040516200457a3803806200457a83398181016040528101906200003891906200080b565b6040518060400160405280600f81526020017f52616e646f6d2049504653204e465400000000000000000000000000000000008152506040518060400160405280600381526020017f52494e0000000000000000000000000000000000000000000000000000000000815250878073ffffffffffffffffffffffffffffffffffffffff1660808173ffffffffffffffffffffffffffffffffffffffff1660601b81525050508160009080519060200190620000f59291906200029e565b5080600190805190602001906200010e9291906200029e565b5050506200013162000125620001d060201b60201c565b620001d860201b60201c565b8573ffffffffffffffffffffffffffffffffffffffff1660a08173ffffffffffffffffffffffffffffffffffffffff1660601b815250508467ffffffffffffffff1660c08167ffffffffffffffff1660c01b815250508360e081815250508263ffffffff166101008163ffffffff1660e01b8152505081600a906003620001ba9291906200032f565b508061012081815250505050505050506200092b565b600033905090565b6000600760009054906101000a900473ffffffffffffffffffffffffffffffffffffffff16905081600760006101000a81548173ffffffffffffffffffffffffffffffffffffffff021916908373ffffffffffffffffffffffffffffffffffffffff1602179055508173ffffffffffffffffffffffffffffffffffffffff168173ffffffffffffffffffffffffffffffffffffffff167f8be0079c531659141344cd1fd0a4f28419497f9722a3daafe3b4186f6b6457e060405160405180910390a35050565b828054620002ac90620008f5565b90600052602060002090601f016020900481019282620002d057600085556200031c565b82601f10620002eb57805160ff19168380011785556200031c565b828001600101855582156200031c579182015b828111156200031b578251825591602001919060010190620002fe565b5b5090506200032b919062000396565b5090565b82805482825590600052602060002090810192821562000383579160200282015b8281111562000382578251829080519060200190620003719291906200029e565b509160200191906001019062000350565b5b509050620003929190620003b5565b5090565b5b80821115620003b157600081600090555060010162000397565b5090565b5b80821115620003d95760008181620003cf9190620003dd565b50600101620003b6565b5090565b508054620003eb90620008f5565b6000825580601f10620003ff575062000420565b601f0160209004906000526020600020908101906200041f919062000396565b5b50565b6000604051905090565b600080fd5b600080fd5b600073ffffffffffffffffffffffffffffffffffffffff82169050919050565b6000620004648262000437565b9050919050565b620004768162000457565b81146200048257600080fd5b50565b60008151905062000496816200046b565b92915050565b600067ffffffffffffffff82169050919050565b620004bb816200049c565b8114620004c757600080fd5b50565b600081519050620004db81620004b0565b92915050565b6000819050919050565b620004f681620004e1565b81146200050257600080fd5b50565b6000815190506200051681620004eb565b92915050565b600063ffffffff82169050919050565b62000537816200051c565b81146200054357600080fd5b50565b60008151905062000557816200052c565b92915050565b600080fd5b6000601f19601f8301169050919050565b7f4e487b7100000000000000000000000000000000000000000000000000000000600052604160045260246000fd5b620005ad8262000562565b810181811067ffffffffffffffff82111715620005cf57620005ce62000573565b5b80604052505050565b6000620005e462000423565b9050620005f28282620005a2565b919050565b600067ffffffffffffffff82111562000615576200061462000573565b5b602082029050919050565b600080fd5b600080fd5b600067ffffffffffffffff82111562000648576200064762000573565b5b620006538262000562565b9050602081019050919050565b60005b838110156200068057808201518184015260208101905062000663565b8381111562000690576000848401525b50505050565b6000620006ad620006a7846200062a565b620005d8565b905082815260208101848484011115620006cc57620006cb62000625565b5b620006d984828562000660565b509392505050565b600082601f830112620006f957620006f86200055d565b5b81516200070b84826020860162000696565b91505092915050565b60006200072b6200072584620005f7565b620005d8565b9050806020840283018581111562000748576200074762000620565b5b835b818110156200079657805167ffffffffffffffff8111156200077157620007706200055d565b5b808601620007808982620006e1565b855260208501945050506020810190506200074a565b5050509392505050565b600082601f830112620007b857620007b76200055d565b5b6003620007c784828562000714565b91505092915050565b6000819050919050565b620007e581620007d0565b8114620007f157600080fd5b50565b6000815190506200080581620007da565b92915050565b60008060008060008060c087890312156200082b576200082a6200042d565b5b60006200083b89828a0162000485565b96505060206200084e89828a01620004ca565b95505060406200086189828a0162000505565b94505060606200087489828a0162000546565b935050608087015167ffffffffffffffff81111562000898576200089762000432565b5b620008a689828a01620007a0565b92505060a0620008b989828a01620007f4565b9150509295509295509295565b7f4e487b7100000000000000000000000000000000000000000000000000000000600052602260045260246000fd5b600060028204905060018216806200090e57607f821691505b60208210811415620009255762000924620008c6565b5b50919050565b60805160601c60a05160601c60c05160c01c60e0516101005160e01c61012051613be56200099560003960008181610d4b0152610f5a0152600061103401526000610ff00152600061101101526000610fb401526000818161091d01526109710152613be56000f3fe6080604052600436106101815760003560e01c806370a08231116100d1578063a36f573b1161008a578063b88d4fde11610064578063b88d4fde14610577578063c87b56dd146105a0578063e985e9c5146105dd578063f2fde38b1461061a57610181565b8063a36f573b146104df578063a51cccf31461051c578063aa1524911461055957610181565b806370a08231146103e1578063715018a61461041e5780637a5caab3146104355780638da5cb5b1461046057806395d89b411461048b578063a22cb465146104b657610181565b806323b872dd1161013e57806342842e0e1161011857806342842e0e146103255780635dacf5f41461034e5780636352211e146103795780636e02007d146103b657610181565b806323b872dd146102a85780633af25975146102d15780633ccfd60b1461030e57610181565b806301ffc9a71461018657806306fdde03146101c3578063081812fc146101ee578063095ea7b31461022b5780630b21a83b146102545780631fe543e31461027f575b600080fd5b34801561019257600080fd5b506101ad60048036038101906101a891906127c4565b610643565b6040516101ba919061280c565b60405180910390f35b3480156101cf57600080fd5b506101d8610725565b6040516101e591906128c0565b60405180910390f35b3480156101fa57600080fd5b5061021560048036038101906102109190612918565b6107b7565b6040516102229190612986565b60405180910390f35b34801561023757600080fd5b50610252600480360381019061024d91906129cd565b6107fd565b005b34801561026057600080fd5b50610269610915565b6040516102769190612a1c565b60405180910390f35b34801561028b57600080fd5b506102a660048036038101906102a19190612b7f565b61091b565b005b3480156102b457600080fd5b506102cf60048036038101906102ca9190612bdb565b6109db565b005b3480156102dd57600080fd5b506102f860048036038101906102f39190612918565b610a3b565b60405161030591906128c0565b60405180910390f35b34801561031a57600080fd5b50610323610aeb565b005b34801561033157600080fd5b5061034c60048036038101906103479190612bdb565b610b9f565b005b34801561035a57600080fd5b50610363610bbf565b6040516103709190612cd9565b60405180910390f35b34801561038557600080fd5b506103a0600480360381019061039b9190612918565b610bea565b6040516103ad9190612986565b60405180910390f35b3480156103c257600080fd5b506103cb610c71565b6040516103d89190612a1c565b60405180910390f35b3480156103ed57600080fd5b5061040860048036038101906104039190612cf4565b610c7b565b6040516104159190612a1c565b60405180910390f35b34801561042a57600080fd5b50610433610d33565b005b34801561044157600080fd5b5061044a610d47565b6040516104579190612a1c565b60405180910390f35b34801561046c57600080fd5b50610475610d6f565b6040516104829190612986565b60405180910390f35b34801561049757600080fd5b506104a0610d99565b6040516104ad91906128c0565b60405180910390f35b3480156104c257600080fd5b506104dd60048036038101906104d89190612d4d565b610e2b565b005b3480156104eb57600080fd5b5061050660048036038101906105019190612918565b610e41565b6040516105139190612986565b60405180910390f35b34801561052857600080fd5b50610543600480360381019061053e9190612918565b610e74565b6040516105509190612e04565b60405180910390f35b610561610f56565b60405161056e9190612a1c565b60405180910390f35b34801561058357600080fd5b5061059e60048036038101906105999190612ed4565b611156565b005b3480156105ac57600080fd5b506105c760048036038101906105c29190612918565b6111b8565b6040516105d491906128c0565b60405180910390f35b3480156105e957600080fd5b5061060460048036038101906105ff9190612f57565b6112cb565b604051610611919061280c565b60405180910390f35b34801561062657600080fd5b50610641600480360381019061063c9190612cf4565b61135f565b005b60007f80ac58cd000000000000000000000000000000000000000000000000000000007bffffffffffffffffffffffffffffffffffffffffffffffffffffffff1916827bffffffffffffffffffffffffffffffffffffffffffffffffffffffff1916148061070e57507f5b5e139f000000000000000000000000000000000000000000000000000000007bffffffffffffffffffffffffffffffffffffffffffffffffffffffff1916827bffffffffffffffffffffffffffffffffffffffffffffffffffffffff1916145b8061071e575061071d826113e3565b5b9050919050565b60606000805461073490612fc6565b80601f016020809104026020016040519081016040528092919081815260200182805461076090612fc6565b80156107ad5780601f10610782576101008083540402835291602001916107ad565b820191906000526020600020905b81548152906001019060200180831161079057829003601f168201915b5050505050905090565b60006107c28261144d565b6004600083815260200190815260200160002060009054906101000a900473ffffffffffffffffffffffffffffffffffffffff169050919050565b600061080882610bea565b90508073ffffffffffffffffffffffffffffffffffffffff168373ffffffffffffffffffffffffffffffffffffffff161415610879576040517f08c379a00000000000000000000000000000000000000000000000000000000081526004016108709061306a565b60405180910390fd5b8073ffffffffffffffffffffffffffffffffffffffff16610898611498565b73ffffffffffffffffffffffffffffffffffffffff1614806108c757506108c6816108c1611498565b6112cb565b5b610906576040517f08c379a00000000000000000000000000000000000000000000000000000000081526004016108fd906130fc565b60405180910390fd5b61091083836114a0565b505050565b60095481565b7f000000000000000000000000000000000000000000000000000000000000000073ffffffffffffffffffffffffffffffffffffffff163373ffffffffffffffffffffffffffffffffffffffff16146109cd57337f00000000000000000000000000000000000000000000000000000000000000006040517f1cf993f40000000000000000000000000000000000000000000000000000000081526004016109c492919061311c565b60405180910390fd5b6109d78282611559565b5050565b6109ec6109e6611498565b826116de565b610a2b576040517f08c379a0000000000000000000000000000000000000000000000000000000008152600401610a22906131b7565b60405180910390fd5b610a36838383611773565b505050565b6060600a8281548110610a5157610a506131d7565b5b906000526020600020018054610a6690612fc6565b80601f0160208091040260200160405190810160405280929190818152602001828054610a9290612fc6565b8015610adf5780601f10610ab457610100808354040283529160200191610adf565b820191906000526020600020905b815481529060010190602001808311610ac257829003601f168201915b50505050509050919050565b610af3611a6d565b600047905060003373ffffffffffffffffffffffffffffffffffffffff1682604051610b1e90613237565b60006040518083038185875af1925050503d8060008114610b5b576040519150601f19603f3d011682016040523d82523d6000602084013e610b60565b606091505b5050905080610b9b576040517fca7e25b700000000000000000000000000000000000000000000000000000000815260040160405180910390fd5b5050565b610bba83838360405180602001604052806000815250611156565b505050565b610bc7612693565b6040518060600160405280600a8152602001601e81526020016064815250905090565b600080610bf683611aeb565b9050600073ffffffffffffffffffffffffffffffffffffffff168173ffffffffffffffffffffffffffffffffffffffff161415610c68576040517f08c379a0000000000000000000000000000000000000000000000000000000008152600401610c5f90613298565b60405180910390fd5b80915050919050565b6000600954905090565b60008073ffffffffffffffffffffffffffffffffffffffff168273ffffffffffffffffffffffffffffffffffffffff161415610cec576040517f08c379a0000000000000000000000000000000000000000000000000000000008152600401610ce39061332a565b60405180910390fd5b600360008373ffffffffffffffffffffffffffffffffffffffff1673ffffffffffffffffffffffffffffffffffffffff168152602001908152602001600020549050919050565b610d3b611a6d565b610d456000611b28565b565b60007f0000000000000000000000000000000000000000000000000000000000000000905090565b6000600760009054906101000a900473ffffffffffffffffffffffffffffffffffffffff16905090565b606060018054610da890612fc6565b80601f0160208091040260200160405190810160405280929190818152602001828054610dd490612fc6565b8015610e215780601f10610df657610100808354040283529160200191610e21565b820191906000526020600020905b815481529060010190602001808311610e0457829003601f168201915b5050505050905090565b610e3d610e36611498565b8383611bee565b5050565b60086020528060005260406000206000915054906101000a900473ffffffffffffffffffffffffffffffffffffffff1681565b600080600090506000610e85610bbf565b905060005b6003811015610f1e57828510158015610ec45750818160038110610eb157610eb06131d7565b5b602002015183610ec19190613379565b85105b15610ee657806002811115610edc57610edb612d8d565b5b9350505050610f51565b818160038110610ef957610ef86131d7565b5b602002015183610f099190613379565b92508080610f16906133cf565b915050610e8a565b506040517f12806c9d00000000000000000000000000000000000000000000000000000000815260040160405180910390fd5b919050565b60007f0000000000000000000000000000000000000000000000000000000000000000341015610fb2576040517ff64fbfee00000000000000000000000000000000000000000000000000000000815260040160405180910390fd5b7f000000000000000000000000000000000000000000000000000000000000000073ffffffffffffffffffffffffffffffffffffffff16635d3b1d307f00000000000000000000000000000000000000000000000000000000000000007f000000000000000000000000000000000000000000000000000000000000000060037f000000000000000000000000000000000000000000000000000000000000000060016040518663ffffffff1660e01b8152600401611075959493929190613490565b602060405180830381600087803b15801561108f57600080fd5b505af11580156110a3573d6000803e3d6000fd5b505050506040513d601f19601f820116820180604052508101906110c791906134f8565b9050336008600083815260200190815260200160002060006101000a81548173ffffffffffffffffffffffffffffffffffffffff021916908373ffffffffffffffffffffffffffffffffffffffff160217905550807ff873236e6cc0ecc5be1a9a35c95ee5b8d1ac4cc7bfef0cc5060391d6cc98e26b3360405161114b9190612986565b60405180910390a290565b611167611161611498565b836116de565b6111a6576040517f08c379a000000000000000000000000000000000000000000000000000000000815260040161119d906131b7565b60405180910390fd5b6111b284848484611d5b565b50505050565b60606111c38261144d565b60006006600084815260200190815260200160002080546111e390612fc6565b80601f016020809104026020016040519081016040528092919081815260200182805461120f90612fc6565b801561125c5780601f106112315761010080835404028352916020019161125c565b820191906000526020600020905b81548152906001019060200180831161123f57829003601f168201915b50505050509050600061126d611db7565b90506000815114156112835781925050506112c6565b6000825111156112b85780826040516020016112a0929190613561565b604051602081830303815290604052925050506112c6565b6112c184611dce565b925050505b919050565b6000600560008473ffffffffffffffffffffffffffffffffffffffff1673ffffffffffffffffffffffffffffffffffffffff16815260200190815260200160002060008373ffffffffffffffffffffffffffffffffffffffff1673ffffffffffffffffffffffffffffffffffffffff16815260200190815260200160002060009054906101000a900460ff16905092915050565b611367611a6d565b600073ffffffffffffffffffffffffffffffffffffffff168173ffffffffffffffffffffffffffffffffffffffff1614156113d7576040517f08c379a00000000000000000000000000000000000000000000000000000000081526004016113ce906135f7565b60405180910390fd5b6113e081611b28565b50565b60007f01ffc9a7000000000000000000000000000000000000000000000000000000007bffffffffffffffffffffffffffffffffffffffffffffffffffffffff1916827bffffffffffffffffffffffffffffffffffffffffffffffffffffffff1916149050919050565b61145681611e36565b611495576040517f08c379a000000000000000000000000000000000000000000000000000000000815260040161148c90613298565b60405180910390fd5b50565b600033905090565b816004600083815260200190815260200160002060006101000a81548173ffffffffffffffffffffffffffffffffffffffff021916908373ffffffffffffffffffffffffffffffffffffffff160217905550808273ffffffffffffffffffffffffffffffffffffffff1661151383610bea565b73ffffffffffffffffffffffffffffffffffffffff167f8c5be1e5ebec7d5bd14f71427d1e84f3dd0314c0f7b2291e5b200ac8c7c3b92560405160405180910390a45050565b60006008600084815260200190815260200160002060009054906101000a900473ffffffffffffffffffffffffffffffffffffffff1690506000600954905060006064846000815181106115b0576115af6131d7565b5b60200260200101516115c29190613646565b905060006115cf82610e74565b90506115db8484611e77565b61169d83600a8360028111156115f4576115f3612d8d565b5b81548110611605576116046131d7565b5b90600052602060002001805461161a90612fc6565b80601f016020809104026020016040519081016040528092919081815260200182805461164690612fc6565b80156116935780601f1061166857610100808354040283529160200191611693565b820191906000526020600020905b81548152906001019060200180831161167657829003601f168201915b5050505050611e95565b7f8a269f26b688e110e9cbd887d163dab35cae678fa353a0292de532c0cac1ecdc81856040516116ce929190613677565b60405180910390a1505050505050565b6000806116ea83610bea565b90508073ffffffffffffffffffffffffffffffffffffffff168473ffffffffffffffffffffffffffffffffffffffff16148061172c575061172b81856112cb565b5b8061176a57508373ffffffffffffffffffffffffffffffffffffffff16611752846107b7565b73ffffffffffffffffffffffffffffffffffffffff16145b91505092915050565b8273ffffffffffffffffffffffffffffffffffffffff1661179382610bea565b73ffffffffffffffffffffffffffffffffffffffff16146117e9576040517f08c379a00000000000000000000000000000000000000000000000000000000081526004016117e090613712565b60405180910390fd5b600073ffffffffffffffffffffffffffffffffffffffff168273ffffffffffffffffffffffffffffffffffffffff161415611859576040517f08c379a0000000000000000000000000000000000000000000000000000000008152600401611850906137a4565b60405180910390fd5b6118668383836001611f09565b8273ffffffffffffffffffffffffffffffffffffffff1661188682610bea565b73ffffffffffffffffffffffffffffffffffffffff16146118dc576040517f08c379a00000000000000000000000000000000000000000000000000000000081526004016118d390613712565b60405180910390fd5b6004600082815260200190815260200160002060006101000a81549073ffffffffffffffffffffffffffffffffffffffff02191690556001600360008573ffffffffffffffffffffffffffffffffffffffff1673ffffffffffffffffffffffffffffffffffffffff168152602001908152602001600020600082825403925050819055506001600360008473ffffffffffffffffffffffffffffffffffffffff1673ffffffffffffffffffffffffffffffffffffffff16815260200190815260200160002060008282540192505081905550816002600083815260200190815260200160002060006101000a81548173ffffffffffffffffffffffffffffffffffffffff021916908373ffffffffffffffffffffffffffffffffffffffff160217905550808273ffffffffffffffffffffffffffffffffffffffff168473ffffffffffffffffffffffffffffffffffffffff167fddf252ad1be2c89b69c2b068fc378daa952ba7f163c4a11628f55a4df523b3ef60405160405180910390a4611a68838383600161202f565b505050565b611a75611498565b73ffffffffffffffffffffffffffffffffffffffff16611a93610d6f565b73ffffffffffffffffffffffffffffffffffffffff1614611ae9576040517f08c379a0000000000000000000000000000000000000000000000000000000008152600401611ae090613810565b60405180910390fd5b565b60006002600083815260200190815260200160002060009054906101000a900473ffffffffffffffffffffffffffffffffffffffff169050919050565b6000600760009054906101000a900473ffffffffffffffffffffffffffffffffffffffff16905081600760006101000a81548173ffffffffffffffffffffffffffffffffffffffff021916908373ffffffffffffffffffffffffffffffffffffffff1602179055508173ffffffffffffffffffffffffffffffffffffffff168173ffffffffffffffffffffffffffffffffffffffff167f8be0079c531659141344cd1fd0a4f28419497f9722a3daafe3b4186f6b6457e060405160405180910390a35050565b8173ffffffffffffffffffffffffffffffffffffffff168373ffffffffffffffffffffffffffffffffffffffff161415611c5d576040517f08c379a0000000000000000000000000000000000000000000000000000000008152600401611c549061387c565b60405180910390fd5b80600560008573ffffffffffffffffffffffffffffffffffffffff1673ffffffffffffffffffffffffffffffffffffffff16815260200190815260200160002060008473ffffffffffffffffffffffffffffffffffffffff1673ffffffffffffffffffffffffffffffffffffffff16815260200190815260200160002060006101000a81548160ff0219169083151502179055508173ffffffffffffffffffffffffffffffffffffffff168373ffffffffffffffffffffffffffffffffffffffff167f17307eab39ab6107e8899845ad3d59bd9653f200f220920489ca2b5937696c3183604051611d4e919061280c565b60405180910390a3505050565b611d66848484611773565b611d7284848484612035565b611db1576040517f08c379a0000000000000000000000000000000000000000000000000000000008152600401611da89061390e565b60405180910390fd5b50505050565b606060405180602001604052806000815250905090565b6060611dd98261144d565b6000611de3611db7565b90506000815111611e035760405180602001604052806000815250611e2e565b80611e0d846121cc565b604051602001611e1e929190613561565b6040516020818303038152906040525b915050919050565b60008073ffffffffffffffffffffffffffffffffffffffff16611e5883611aeb565b73ffffffffffffffffffffffffffffffffffffffff1614159050919050565b611e918282604051806020016040528060008152506122a4565b5050565b611e9e82611e36565b611edd576040517f08c379a0000000000000000000000000000000000000000000000000000000008152600401611ed4906139a0565b60405180910390fd5b80600660008481526020019081526020016000209080519060200190611f049291906126b5565b505050565b600181111561202957600073ffffffffffffffffffffffffffffffffffffffff168473ffffffffffffffffffffffffffffffffffffffff1614611f9d5780600360008673ffffffffffffffffffffffffffffffffffffffff1673ffffffffffffffffffffffffffffffffffffffff1681526020019081526020016000206000828254611f9591906139c0565b925050819055505b600073ffffffffffffffffffffffffffffffffffffffff168373ffffffffffffffffffffffffffffffffffffffff16146120285780600360008573ffffffffffffffffffffffffffffffffffffffff1673ffffffffffffffffffffffffffffffffffffffff16815260200190815260200160002060008282546120209190613379565b925050819055505b5b50505050565b50505050565b60006120568473ffffffffffffffffffffffffffffffffffffffff166122ff565b156121bf578373ffffffffffffffffffffffffffffffffffffffff1663150b7a0261207f611498565b8786866040518563ffffffff1660e01b81526004016120a19493929190613a49565b602060405180830381600087803b1580156120bb57600080fd5b505af19250505080156120ec57506040513d601f19601f820116820180604052508101906120e99190613aaa565b60015b61216f573d806000811461211c576040519150601f19603f3d011682016040523d82523d6000602084013e612121565b606091505b50600081511415612167576040517f08c379a000000000000000000000000000000000000000000000000000000000815260040161215e9061390e565b60405180910390fd5b805181602001fd5b63150b7a0260e01b7bffffffffffffffffffffffffffffffffffffffffffffffffffffffff1916817bffffffffffffffffffffffffffffffffffffffffffffffffffffffff1916149150506121c4565b600190505b949350505050565b6060600060016121db84612322565b01905060008167ffffffffffffffff8111156121fa576121f9612a3c565b5b6040519080825280601f01601f19166020018201604052801561222c5781602001600182028036833780820191505090505b509050600082602001820190505b600115612299578080600190039150507f3031323334353637383961626364656600000000000000000000000000000000600a86061a8153600a858161228357612282613617565b5b049450600085141561229457612299565b61223a565b819350505050919050565b6122ae8383612475565b6122bb6000848484612035565b6122fa576040517f08c379a00000000000000000000000000000000000000000000000000000000081526004016122f19061390e565b60405180910390fd5b505050565b6000808273ffffffffffffffffffffffffffffffffffffffff163b119050919050565b600080600090507a184f03e93ff9f4daa797ed6e38ed64bf6a1f0100000000000000008310612380577a184f03e93ff9f4daa797ed6e38ed64bf6a1f010000000000000000838161237657612375613617565b5b0492506040810190505b6d04ee2d6d415b85acef810000000083106123bd576d04ee2d6d415b85acef810000000083816123b3576123b2613617565b5b0492506020810190505b662386f26fc1000083106123ec57662386f26fc1000083816123e2576123e1613617565b5b0492506010810190505b6305f5e1008310612415576305f5e100838161240b5761240a613617565b5b0492506008810190505b612710831061243a5761271083816124305761242f613617565b5b0492506004810190505b6064831061245d576064838161245357612452613617565b5b0492506002810190505b600a831061246c576001810190505b80915050919050565b600073ffffffffffffffffffffffffffffffffffffffff168273ffffffffffffffffffffffffffffffffffffffff1614156124e5576040517f08c379a00000000000000000000000000000000000000000000000000000000081526004016124dc90613b23565b60405180910390fd5b6124ee81611e36565b1561252e576040517f08c379a000000000000000000000000000000000000000000000000000000000815260040161252590613b8f565b60405180910390fd5b61253c600083836001611f09565b61254581611e36565b15612585576040517f08c379a000000000000000000000000000000000000000000000000000000000815260040161257c90613b8f565b60405180910390fd5b6001600360008473ffffffffffffffffffffffffffffffffffffffff1673ffffffffffffffffffffffffffffffffffffffff16815260200190815260200160002060008282540192505081905550816002600083815260200190815260200160002060006101000a81548173ffffffffffffffffffffffffffffffffffffffff021916908373ffffffffffffffffffffffffffffffffffffffff160217905550808273ffffffffffffffffffffffffffffffffffffffff16600073ffffffffffffffffffffffffffffffffffffffff167fddf252ad1be2c89b69c2b068fc378daa952ba7f163c4a11628f55a4df523b3ef60405160405180910390a461268f60008383600161202f565b5050565b6040518060600160405280600390602082028036833780820191505090505090565b8280546126c190612fc6565b90600052602060002090601f0160209004810192826126e3576000855561272a565b82601f106126fc57805160ff191683800117855561272a565b8280016001018555821561272a579182015b8281111561272957825182559160200191906001019061270e565b5b509050612737919061273b565b5090565b5b8082111561275457600081600090555060010161273c565b5090565b6000604051905090565b600080fd5b600080fd5b60007fffffffff0000000000000000000000000000000000000000000000000000000082169050919050565b6127a18161276c565b81146127ac57600080fd5b50565b6000813590506127be81612798565b92915050565b6000602082840312156127da576127d9612762565b5b60006127e8848285016127af565b91505092915050565b60008115159050919050565b612806816127f1565b82525050565b600060208201905061282160008301846127fd565b92915050565b600081519050919050565b600082825260208201905092915050565b60005b83811015612861578082015181840152602081019050612846565b83811115612870576000848401525b50505050565b6000601f19601f8301169050919050565b600061289282612827565b61289c8185612832565b93506128ac818560208601612843565b6128b581612876565b840191505092915050565b600060208201905081810360008301526128da8184612887565b905092915050565b6000819050919050565b6128f5816128e2565b811461290057600080fd5b50565b600081359050612912816128ec565b92915050565b60006020828403121561292e5761292d612762565b5b600061293c84828501612903565b91505092915050565b600073ffffffffffffffffffffffffffffffffffffffff82169050919050565b600061297082612945565b9050919050565b61298081612965565b82525050565b600060208201905061299b6000830184612977565b92915050565b6129aa81612965565b81146129b557600080fd5b50565b6000813590506129c7816129a1565b92915050565b600080604083850312156129e4576129e3612762565b5b60006129f2858286016129b8565b9250506020612a0385828601612903565b9150509250929050565b612a16816128e2565b82525050565b6000602082019050612a316000830184612a0d565b92915050565b600080fd5b7f4e487b7100000000000000000000000000000000000000000000000000000000600052604160045260246000fd5b612a7482612876565b810181811067ffffffffffffffff82111715612a9357612a92612a3c565b5b80604052505050565b6000612aa6612758565b9050612ab28282612a6b565b919050565b600067ffffffffffffffff821115612ad257612ad1612a3c565b5b602082029050602081019050919050565b600080fd5b6000612afb612af684612ab7565b612a9c565b90508083825260208201905060208402830185811115612b1e57612b1d612ae3565b5b835b81811015612b475780612b338882612903565b845260208401935050602081019050612b20565b5050509392505050565b600082601f830112612b6657612b65612a37565b5b8135612b76848260208601612ae8565b91505092915050565b60008060408385031215612b9657612b95612762565b5b6000612ba485828601612903565b925050602083013567ffffffffffffffff811115612bc557612bc4612767565b5b612bd185828601612b51565b9150509250929050565b600080600060608486031215612bf457612bf3612762565b5b6000612c02868287016129b8565b9350506020612c13868287016129b8565b9250506040612c2486828701612903565b9150509250925092565b600060039050919050565b600081905092915050565b6000819050919050565b612c57816128e2565b82525050565b6000612c698383612c4e565b60208301905092915050565b6000602082019050919050565b612c8b81612c2e565b612c958184612c39565b9250612ca082612c44565b8060005b83811015612cd1578151612cb88782612c5d565b9650612cc383612c75565b925050600181019050612ca4565b505050505050565b6000606082019050612cee6000830184612c82565b92915050565b600060208284031215612d0a57612d09612762565b5b6000612d18848285016129b8565b91505092915050565b612d2a816127f1565b8114612d3557600080fd5b50565b600081359050612d4781612d21565b92915050565b60008060408385031215612d6457612d63612762565b5b6000612d72858286016129b8565b9250506020612d8385828601612d38565b9150509250929050565b7f4e487b7100000000000000000000000000000000000000000000000000000000600052602160045260246000fd5b60038110612dcd57612dcc612d8d565b5b50565b6000819050612dde82612dbc565b919050565b6000612dee82612dd0565b9050919050565b612dfe81612de3565b82525050565b6000602082019050612e196000830184612df5565b92915050565b600080fd5b600067ffffffffffffffff821115612e3f57612e3e612a3c565b5b612e4882612876565b9050602081019050919050565b82818337600083830152505050565b6000612e77612e7284612e24565b612a9c565b905082815260208101848484011115612e9357612e92612e1f565b5b612e9e848285612e55565b509392505050565b600082601f830112612ebb57612eba612a37565b5b8135612ecb848260208601612e64565b91505092915050565b60008060008060808587031215612eee57612eed612762565b5b6000612efc878288016129b8565b9450506020612f0d878288016129b8565b9350506040612f1e87828801612903565b925050606085013567ffffffffffffffff811115612f3f57612f3e612767565b5b612f4b87828801612ea6565b91505092959194509250565b60008060408385031215612f6e57612f6d612762565b5b6000612f7c858286016129b8565b9250506020612f8d858286016129b8565b9150509250929050565b7f4e487b7100000000000000000000000000000000000000000000000000000000600052602260045260246000fd5b60006002820490506001821680612fde57607f821691505b60208210811415612ff257612ff1612f97565b5b50919050565b7f4552433732313a20617070726f76616c20746f2063757272656e74206f776e6560008201527f7200000000000000000000000000000000000000000000000000000000000000602082015250565b6000613054602183612832565b915061305f82612ff8565b604082019050919050565b6000602082019050818103600083015261308381613047565b9050919050565b7f4552433732313a20617070726f76652063616c6c6572206973206e6f7420746f60008201527f6b656e206f776e6572206f7220617070726f76656420666f7220616c6c000000602082015250565b60006130e6603d83612832565b91506130f18261308a565b604082019050919050565b60006020820190508181036000830152613115816130d9565b9050919050565b60006040820190506131316000830185612977565b61313e6020830184612977565b9392505050565b7f4552433732313a2063616c6c6572206973206e6f7420746f6b656e206f776e6560008201527f72206f7220617070726f76656400000000000000000000000000000000000000602082015250565b60006131a1602d83612832565b91506131ac82613145565b604082019050919050565b600060208201905081810360008301526131d081613194565b9050919050565b7f4e487b7100000000000000000000000000000000000000000000000000000000600052603260045260246000fd5b600081905092915050565b50565b6000613221600083613206565b915061322c82613211565b600082019050919050565b600061324282613214565b9150819050919050565b7f4552433732313a20696e76616c696420746f6b656e2049440000000000000000600082015250565b6000613282601883612832565b915061328d8261324c565b602082019050919050565b600060208201905081810360008301526132b181613275565b9050919050565b7f4552433732313a2061646472657373207a65726f206973206e6f74206120766160008201527f6c6964206f776e65720000000000000000000000000000000000000000000000602082015250565b6000613314602983612832565b915061331f826132b8565b604082019050919050565b6000602082019050818103600083015261334381613307565b9050919050565b7f4e487b7100000000000000000000000000000000000000000000000000000000600052601160045260246000fd5b6000613384826128e2565b915061338f836128e2565b9250827fffffffffffffffffffffffffffffffffffffffffffffffffffffffffffffffff038211156133c4576133c361334a565b5b828201905092915050565b60006133da826128e2565b91507fffffffffffffffffffffffffffffffffffffffffffffffffffffffffffffffff82141561340d5761340c61334a565b5b600182019050919050565b6000819050919050565b61342b81613418565b82525050565b600067ffffffffffffffff82169050919050565b61344e81613431565b82525050565b600061ffff82169050919050565b61346b81613454565b82525050565b600063ffffffff82169050919050565b61348a81613471565b82525050565b600060a0820190506134a56000830188613422565b6134b26020830187613445565b6134bf6040830186613462565b6134cc6060830185613481565b6134d96080830184613481565b9695505050505050565b6000815190506134f2816128ec565b92915050565b60006020828403121561350e5761350d612762565b5b600061351c848285016134e3565b91505092915050565b600081905092915050565b600061353b82612827565b6135458185613525565b9350613555818560208601612843565b80840191505092915050565b600061356d8285613530565b91506135798284613530565b91508190509392505050565b7f4f776e61626c653a206e6577206f776e657220697320746865207a65726f206160008201527f6464726573730000000000000000000000000000000000000000000000000000602082015250565b60006135e1602683612832565b91506135ec82613585565b604082019050919050565b60006020820190508181036000830152613610816135d4565b9050919050565b7f4e487b7100000000000000000000000000000000000000000000000000000000600052601260045260246000fd5b6000613651826128e2565b915061365c836128e2565b92508261366c5761366b613617565b5b828206905092915050565b600060408201905061368c6000830185612df5565b6136996020830184612977565b9392505050565b7f4552433732313a207472616e736665722066726f6d20696e636f72726563742060008201527f6f776e6572000000000000000000000000000000000000000000000000000000602082015250565b60006136fc602583612832565b9150613707826136a0565b604082019050919050565b6000602082019050818103600083015261372b816136ef565b9050919050565b7f4552433732313a207472616e7366657220746f20746865207a65726f2061646460008201527f7265737300000000000000000000000000000000000000000000000000000000602082015250565b600061378e602483612832565b915061379982613732565b604082019050919050565b600060208201905081810360008301526137bd81613781565b9050919050565b7f4f776e61626c653a2063616c6c6572206973206e6f7420746865206f776e6572600082015250565b60006137fa602083612832565b9150613805826137c4565b602082019050919050565b60006020820190508181036000830152613829816137ed565b9050919050565b7f4552433732313a20617070726f766520746f2063616c6c657200000000000000600082015250565b6000613866601983612832565b915061387182613830565b602082019050919050565b6000602082019050818103600083015261389581613859565b9050919050565b7f4552433732313a207472616e7366657220746f206e6f6e20455243373231526560008201527f63656976657220696d706c656d656e7465720000000000000000000000000000602082015250565b60006138f8603283612832565b91506139038261389c565b604082019050919050565b60006020820190508181036000830152613927816138eb565b9050919050565b7f45524337323155524953746f726167653a2055524920736574206f66206e6f6e60008201527f6578697374656e7420746f6b656e000000000000000000000000000000000000602082015250565b600061398a602e83612832565b91506139958261392e565b604082019050919050565b600060208201905081810360008301526139b98161397d565b9050919050565b60006139cb826128e2565b91506139d6836128e2565b9250828210156139e9576139e861334a565b5b828203905092915050565b600081519050919050565b600082825260208201905092915050565b6000613a1b826139f4565b613a2581856139ff565b9350613a35818560208601612843565b613a3e81612876565b840191505092915050565b6000608082019050613a5e6000830187612977565b613a6b6020830186612977565b613a786040830185612a0d565b8181036060830152613a8a8184613a10565b905095945050505050565b600081519050613aa481612798565b92915050565b600060208284031215613ac057613abf612762565b5b6000613ace84828501613a95565b91505092915050565b7f4552433732313a206d696e7420746f20746865207a65726f2061646472657373600082015250565b6000613b0d602083612832565b9150613b1882613ad7565b602082019050919050565b60006020820190508181036000830152613b3c81613b00565b9050919050565b7f4552433732313a20746f6b656e20616c7265616479206d696e74656400000000600082015250565b6000613b79601c83612832565b9150613b8482613b43565b602082019050919050565b60006020820190508181036000830152613ba881613b6c565b905091905056fea264697066735822122061eb9fff12ed2b3f6774776dd30394aa6e94dfca0d8f9eea586d7fe4e5ac717964736f6c63430008080033",
  "linkReferences": {},
  "deployedLinkReferences": {}
}